:100000000C9432000C9415060C943E060C94670672
:100010000C944F000C944F000C944F000C944F0024
:100020000C944F000C944F000C94D4060C94FD06D5
:100030000C944F000C944F000C944F000C944F0004
:100040000C944F000C944F000C944F000C944F00F4
:100050000C944F00E800EC00F400F800FC000301F1
:100060000E01150111241FBECFE5D8E0DEBFCDBFC4
:1000700010E0A0E6B0E0E4EDFEE002C005900D92D5
:10008000A439B107D9F720E0A4E9B0E001C01D927E
:10009000A93AB207E1F70E9453030C9468070C9445
:1000A0000000809160008F5F80936000843099F041
:1000B00028F4823041F0833051F01AC0853079F055
:1000C000863089F015C081E08093980011C082E0ED
:1000D000809398000DC083E08093980009C084E06D
:1000E0008093980005C01092980081E08093600092
:1000F00080919700877F21F0809198000E941F03D4
:100100000895EF92FF920F93CF93789487E690E053
:100110000E948C0285E690E00E948C0283E690E0CB
:100120000E948C0281E690E00E948C0289E690E0B9
:100130000E94600162E082E00E949A0561E570E041
:1001400082E00E94690582E00E9483050F2EFCE692
:10015000EF2EF0E0FF2EF02DC0E0F7012481358175
:100160004681578160817181828193810C2F0E9429
:10017000B202CF5FF8E0EF0EF11CC53071F7CF91FE
:100180000F91FF90EF90089589E690E00E947A0128
:10019000811111C0809197008F5F80939700893003
:1001A00021F481E08093970002C0813021F4809196
:1001B00098000E941F03E09197008E2F90E0FC01B1
:1001C0003197E830F105B8F5E65DFF4F0C9448072C
:1001D00081E080936B0033C081E080939600809132
:1001E0006B008130E9F52BC081E08093950023C03E
:1001F00081E0809394001FC087E690E00E94AC02EB
:1002000010926B0029C085E690E00E94AC0210922B
:10021000960080916B00813081F511C083E690E0FB
:100220000E94AC021092950006C081E690E00E9408
:10023000AC021092940080916B00813069F480913F
:100240009900813029F487E690E00E94A60204C05C
:1002500087E690E00E94AC0280919600813069F4BC
:1002600080919900813029F485E690E00E94A602F1
:1002700004C085E690E00E94AC0280919500813038
:1002800069F480919900813029F483E690E00E941E
:10029000A60204C083E690E00E94AC028091940024
:1002A000813069F480919900813029F481E690E0F1
:1002B0000E94A602089581E690E00E94AC02089593
:1002C000CF93DF93EC0162E088810E94580389811B
:1002D000813029F461E088810E94840408C0811182
:1002E00005C060E088810E94840401C080E0DF9145
:1002F000CF910895CF93DF93EC018981882371F02A
:100300008130B9F488810E942905811114C0888147
:100310000E9429058823D9F380E010C088810E94BB
:100320002905813051F488810E9429058111FBCF74
:1003300005C081E003C081E001C081E0DF91CF9181
:10034000089580919A0090E0A0E0B0E040916C00A8
:1003500050916D0060916E0070916F008417950749
:10036000A607B70721F481E08093990011C040915E
:100370007000509171006091720070917300841749
:100380009507A607B70721F41092990010929A00DA
:1003900080919A008F5F80939A0084E682BF0895CF
:1003A00080919B0090E0A0E0B0E0409174005091FB
:1003B0007500609176007091770084179507A60705
:1003C000B70721F481E08093990011C04091780033
:1003D0005091790060917A0070917B0084179507A5
:1003E000A607B70721F41092990010929B00809104
:1003F0009B008F5F80939B0084E682BF089580916D
:100400009C0090E0A0E0B0E040917C0050917D0025
:1004100060917E0070917F0084179507A607B7074B
:1004200021F481E08093990011C0409180005091A7
:100430008100609182007091830084179507A60760
:10044000B70721F41092990010929C0080919C00B3
:100450008F5F80939C0084E682BF089580919D0009
:1004600090E0A0E0B0E04091840050918500609160
:1004700086007091870084179507A607B70721F4B7
:1004800081E08093990011C04091880050918900CB
:1004900060918A0070918B0084179507A607B707B3
:1004A00021F41092990010929D0080919D008F5F21
:1004B00080939D0084E682BF089580919E0090E025
:1004C000A0E0B0E040918C0050918D0060918E00D2
:1004D00070918F0084179507A607B70721F481E074
:1004E0008093990011C040919000509191006091CB
:1004F00092007091930084179507A607B70721F41F
:100500001092990010929E0080919E008F5F8093C0
:100510009E0084E682BF0895CF93DF93EC0160E0F4
:1005200088810E9458038981811105C061E088811A
:100530000E94840408C0813029F460E088810E9410
:10054000840401C080E0DF91CF91089561E0FC0157
:1005500080810E948404089560E0FC0180810E94F3
:10056000840408954F925F926F927F928F929F9230
:10057000AF92BF92CF92DF92EF92FF920F93CF9301
:10058000DF936B017C0149015A01260F371F481F79
:10059000591FA8EEB3E00E944E07DC01CB01885042
:1005A0009042A109B109893C9742AF41B105B0F52C
:1005B000C02FD0E0A8EEB3E0A50194010E944E0741
:1005C0000F2EF8E84F2EF3E15F2E612C712CF02DE9
:1005D000A30192010E94260749015A01CC0FDD1F99
:1005E000CC0FDD1FCC0FDD1FC459DF4F28833983AB
:1005F0004A835B83A8EEB3E0A70196010E944E07F1
:10060000A30192010E942607820E931EA41EB51E0E
:100610008C829D82AE82BF8281E001C080E0DF914A
:10062000CF910F91FF90EF90DF90CF90BF90AF9060
:100630009F908F907F906F905F904F90089594E679
:1006400092BF8230A9F028F4882341F0813059F01C
:100650001DC0833091F08430A9F018C081EA91E088
:100660000E94CA0613C080ED91E00E94CA060EC027
:100670008FEF91E00E94CA0609C08EE292E00E94CC
:10068000CA0604C08DE592E00E94CA060E94C60612
:1006900080E00E949006813021F484E00E94BA0636
:1006A000089580E008950E9481000E94C400FDCF5B
:1006B000613009F464C020F0623009F4BFC01CC18D
:1006C0008830A0F44AB3877021E030E0B90102C05D
:1006D000660F771F8A95E2F7CB01942F982B9ABB70
:1006E0009BB3809589238BBB81E0089598EF980F89
:1006F0009830A0F447B3877021E030E0B90102C020
:10070000660F771F8A95E2F7CB01942F982B97BB42
:1007100098B38095892388BB81E0089590EF980F66
:100720009830A0F444B3877021E030E0B90102C0F2
:10073000660F771F8A95E2F7CB01942F982B94BB15
:1007400095B38095892385BB81E0089598EE980F35
:10075000983008F0D3C041B3877021E030E0B90190
:1007600002C0660F771F8A95E2F7CB01942F982B72
:1007700091BB92B38095892382BB81E00895883034
:10078000A0F44AB3877021E030E0B90102C0660FDF
:10079000771F8A95E2F7CB018095942F98239ABB17
:1007A0009BB389238BBB81E0089598EF980F983015
:1007B000A0F447B3877021E030E0B90102C0660FB2
:1007C000771F8A95E2F7CB018095942F982397BBEA
:1007D00098B3892388BB81E0089590EF980F9830F3
:1007E000A0F444B3877021E030E0B90102C0660F85
:1007F000771F8A95E2F7CB018095942F982394BBBD
:1008000095B3892385BB81E0089598EE980F9830C1
:1008100008F076C041B3877021E030E0B90102C032
:10082000660F771F8A95E2F7CB018095942F982366
:1008300091BB92B3892382BB81E008958830A0F4F4
:100840004AB3877021E030E0B90102C0660F771F1C
:100850008A95E2F7CB01962F909594239ABB9BB390
:10086000892B8BBB81E0089598EF980F9830A0F406
:1008700047B3877021E030E0B90102C0660F771FEF
:100880008A95E2F7CB01962F9095942397BB98B366
:10089000892B88BB81E0089590EF980F9830A0F4E1
:1008A00044B3877021E030E0B90102C0660F771FC2
:1008B0008A95E2F7CB01962F9095942394BB95B33C
:1008C000892B85BB81E0089598EE980F9830D0F47D
:1008D00041B3877021E030E0B90102C0660F771F95
:1008E0008A95E2F7CB01962F9095942391BB92B312
:1008F000892B82BB81E0089580E0089580E008950F
:1009000080E0089580E00895662309F44EC06130C8
:1009100009F099C0883078F44BB3877021E030E05B
:10092000B90102C0660F771F8A95E2F7CB01842BCD
:100930008BBB81E0089598EF980F983078F448B316
:10094000877021E030E0B90102C0660F771F8A95F9
:10095000E2F7CB01842B88BB81E0089590EF980FDC
:10096000983078F445B3877021E030E0B90102C0D7
:10097000660F771F8A95E2F7CB01842B85BB81E058
:10098000089598EE980F983008F05FC042B38770D2
:1009900021E030E0B90102C0660F771F8A95E2F7C7
:1009A000CB01842B82BB81E00895883080F44BB367
:1009B000877021E030E0B90102C0660F771F8A9589
:1009C000E2F7CB01809584238BBB81E0089598EFFB
:1009D000980F983080F448B3877021E030E0B90177
:1009E00002C0660F771F8A95E2F7CB0180958423BA
:1009F00088BB81E0089590EF980F983080F445B35C
:100A0000877021E030E0B90102C0660F771F8A9538
:100A1000E2F7CB018095842385BB81E0089598EEB1
:100A2000980F9830A0F442B3877021E030E0B9010C
:100A300002C0660F771F8A95E2F7CB018095842369
:100A400082BB81E0089580E0089580E0089580E011
:100A50000895883060F429B330E08770A90102C09E
:100A6000559547958A95E2F7CA018170089598EFE8
:100A7000980F983060F426B330E08770A90102C067
:100A8000559547958A95E2F7CA018170089590EFD0
:100A9000980F983060F423B330E08770A90102C04A
:100AA000559547958A95E2F7CA018170089598EEA9
:100AB000980F983060F420B330E08770A90102C02D
:100AC000559547958A95E2F7CA018170089580E0AF
:100AD0000895813051F018F0823069F012C070939F
:100AE000A4006093A30081E008957093A200609336
:100AF000A10081E008957093A00060939F0081E0C1
:100B0000089580E00895813049F018F0823059F05E
:100B10000FC08BB780648BBF81E008958BB780686E
:100B20008BBF81E008958BB780628BBF81E0089511
:100B300080E00895823009F45AC06130E1F030F06D
:100B4000623069F1633009F43EC065C0811108C0AC
:100B500085B78E7F85BF85B78D7F85BF81E008957E
:100B6000813009F05AC085B78B7F85BF85B7877FF5
:100B700085BF81E00895813041F485B7877F85BFC7
:100B800085B7846085BF81E00895811148C085B72D
:100B90008D7F85BF85B7816085BF81E008958130F5
:100BA00041F485B7886085BF85B78B7F85BF81E0BD
:100BB0000895811136C085B7826085BF85B78E7F65
:100BC00085BF81E00895813041F485B7886085BF95
:100BD00085B7846085BF81E00895811124C085B701
:100BE000826085BF85B7816085BF81E008956230EE
:100BF00019F0633031F00AC084B78F7B84BF81E085
:100C0000089584B7806484BF81E0089584B78F7BA2
:100C100084BF80E0089580E0089580E0089580E03A
:100C2000089580E0089580E008951F920F920FB616
:100C30000F9211242F933F934F935F936F937F9362
:100C40008F939F93AF93BF93EF93FF93E091A30094
:100C5000F091A400309709F00995FF91EF91BF91B1
:100C6000AF919F918F917F916F915F914F913F9144
:100C70002F910F900FBE0F901F9018951F920F92FB
:100C80000FB60F9211242F933F934F935F936F935F
:100C90007F938F939F93AF93BF93EF93FF93E091D5
:100CA000A100F091A200309709F00995FF91EF9112
:100CB000BF91AF919F918F917F916F915F914F9174
:100CC0003F912F910F900FBE0F901F9018951F927C
:100CD0000F920FB60F9211242F933F934F935F9370
:100CE0006F937F938F939F93AF93BF93EF93FF93F4
:100CF000E0919F00F091A000309709F00995FF91D5
:100D0000EF91BF91AF919F918F917F916F915F9183
:100D10004F913F912F910F900FBE0F901F901895FC
:100D2000813071F028F0823099F08330C9F020C012
:100D300083B78F7B83BF83B7877F83BF81E00895AD
:100D400083B7806483BF83B7877F83BF81E00895C3
:100D500083B78F7B83BF83B7886083BF81E00895AB
:100D600083B7806483BF83B7886083BF81E00895C1
:100D700080E00895863040F493B7987F93BF93B78F
:100D8000892B83BF81E0089580E0089589B7816051
:100D900089BF0895009731F09093A8008093A70031
:100DA00081E0089580E008951F920F920FB60F9290
:100DB00011242F933F934F935F936F937F938F9360
:100DC0009F93AF93BF93EF93FF93E091A500F091B2
:100DD000A600309709F00995FF91EF91BF91AF916F
:100DE0009F918F917F916F915F914F913F912F9143
:100DF0000F900FBE0F901F9018951F920F920FB675
:100E00000F9211242F933F934F935F936F937F9390
:100E10008F939F93AF93BF93EF93FF93E091A700BE
:100E2000F091A800309709F00995FF91EF91BF91DB
:100E3000AF919F918F917F916F915F914F913F9172
:100E40002F910F900FBE0F901F901895A1E21A2EB0
:100E5000AA1BBB1BFD010DC0AA1FBB1FEE1FFF1F5E
:100E6000A217B307E407F50720F0A21BB30BE40BAE
:100E7000F50B661F771F881F991F1A9469F76095F5
:100E80007095809590959B01AC01BD01CF010895AF
:100E9000EE0FFF1F0590F491E02D09940E94590771
:100EA000A59F900DB49F900DA49F800D911D1124BE
:100EB0000895A29FB001B39FC001A39F700D811D33
:100EC0001124911DB29F700D811D1124911D089553
:040ED000F894FFCFC4
:100ED400010F010E010D010C011401016400000059
:100EE40084030000C8000000200300002C0100005F
:100EF400BC020000F4010000F401000084030000BF
:040F04006400000085
:00000001FF
